S00F000054657374696E672E7372656337
S11300000C942A000C943E000C9459000C943C006F
S11300100C943C000C943C000C943C000C943C006C
S11300200C943C000C943C000C943C000C946E002A
S11300300C943C000C943C000C943C000C943C004C
S11300400C943C000C943C000C943C000C943C003C
S11300500C943C0011241FBECFE5D8E0DEBFCDBF19
S113006020E0A0E6B0E001C01D92A436B207E1F79B
S11300700E946B000C9493000C9400001F920F924A
S11300800FB60F9211248F939F939BB381E089271E
S11300908BBB9F918F910F900FBE0F901F9018955F
S11300A08BB780688BBF85B7886085BFD09A7894FA
S11300B008951F920F920FB60F9211248F939F935E
S11300C09BB381E089278BBB9F918F910F900FBECB
S11300D00F901F9018950E945000FFCF1F920F920F
S11300E00FB60F9211248F939F93AF93BF93809178
S11300F0600090916100A0916200B091630001964C
S1130100A11DB11D8093600090936100A0936200D3
S1130110B0936300BF91AF919F918F910F900FBEE9
S10D01200F901F901895F894FFCF7C
S9030000FC
