:100000000C942A000C9444000C9482000C943C0044
:100010000C943C000C943C000C943C000C943C0070
:100020000C943C000C943C000C943C000C94970005
:100030000C943C000C943C000C943C000C943C0050
:100040000C943C000C943C000C943C000C943C0040
:100050000C943C0011241FBECFE5D8E0DEBFCDBF1D
:1000600020E0A0E6B0E001C01D92A436B207E1F79F
:100070000E9494000C94BC000C94000062E086E0A6
:100080000E945600D09A08951F920F920FB60F92B9
:1000900011248F939F939BB381E089278BBB9F9102
:1000A0008F910F900FBE0F901F9018959BB721E076
:1000B00030E0082E02C0220F331F0A94E2F7292BEA
:1000C0002BBF8630A1F08730B1F08530C9F484B7FA
:1000D000462F417050E00024569547950794569559
:1000E00047950794542F402D482B44BF09C085B72E
:1000F000682B65BF05C085B7660F660F682B65BFA7
:10010000789408951F920F920FB60F9211248F9337
:100110009F939BB381E089278BBB9F918F910F9019
:100120000FBE0F901F9018950E943E00FFCF1F92A8
:100130000F920FB60F9211248F939F93AF93BF939B
:100140008091600090916100A0916200B091630085
:100150000196A11DB11D8093600090936100A09352
:100160006200B0936300BF91AF919F918F910F9008
:0C0170000FBE0F901F901895F894FFCF61
:00000001FF
