:100000000C942A000C9464000C9447000C94470054
:100010000C9447000C9447000C9447000C94470044
:100020000C9447000C9447000C9447000C94080271
:100030000C9447000C9447000C9447000C94470024
:100040000C9447000C9447000C9447000C94470014
:100050000C94470011241FBECFE5D8E0DEBFCDBF12
:1000600010E0A0E6B0E0E4EFFAE002C005900D92E7
:10007000A037B107D9F720E0A0E7B0E001C01D929A
:10008000A338B207E1F70E94D3010C9478050C94D1
:10009000000062E080E00E943D028AB384608ABB77
:1000A0008AB382608ABB8AB381608ABB87B384606B
:1000B00087BB87B3826087BB87B3816087BB62E001
:1000C00086E00E94D80108951F920F920FB60F92FA
:1000D00011242F933F934F935F936F937F938F934D
:1000E0009F93AF93BF93EF93FF9380917000811123
:1000F0000DC081E08093700010926000109261004A
:1001000010926200109263000E940B03FF91EF9126
:10011000BF91AF919F918F917F916F915F914F911F
:100120003F912F910F900FBE0F901F901895CF9376
:1001300080917100833048F58BB381608BBB88B3AD
:10014000846088BBC0E019C088B3826088BB8BB371
:1001500082608BBB68E679E889E090E00E949C02AF
:1001600088B38D7F88BB8BB38D7F8BBB68E679E8C6
:1001700089E090E00E949C02CF5FC43028F38BB3EB
:100180008E7F8BBB88B38B7F88BB8BB384608BBB2C
:1001900088B3816088BB60E47BE48CE490E00E94DB
:1001A0009C02C0E019C088B3826088BB8BB38260B8
:1001B0008BBB68E679E889E090E00E949C0288B3F6
:1001C0008D7F88BB8BB38D7F8BBB68E679E889E038
:1001D00090E00E949C02CF5FC43028F38BB38B7FEA
:1001E0008BBB88B38E7F88BB8BB381608BBB88B39E
:1001F000846088BB60E47BE48CE490E00E949C0215
:100200008BB38E7F8BBB88B38B7F88BB82E0809360
:10021000710010927000CF910895CF93809170007B
:10022000813019F40E949700BCC080E49BE4ACE4E8
:10023000B0E08093600090936100A0936200B0935F
:10024000630080917100882389F13BC088B382608C
:1002500088BB8091600090916100A0916200B09194
:100260006300BC01CD01689412F896958795779547
:1002700067951694D1F70E949C0288B38D7F88BB46
:100280008091600090916100A0916200B091630044
:10029000BC01CD01689412F896958795779567957E
:1002A0001694D1F70E949C02CF5F01C0C0E0C43019
:1002B00068F280917000811174C081E080937100B8
:1002C00070C08130C1F488B3846088BB60916000E5
:1002D0007091610080916200909163000E949C0285
:1002E00088B38B7F88BB8091700081115AC082E0F7
:1002F0008093710056C08230E1F530C088B38260CF
:1003000088BB8091600090916100A0916200B091E3
:100310006300BC01CD01689412F896958795779596
:1003200067951694D1F70E949C0288B38D7F88BB95
:100330008091600090916100A0916200B091630093
:10034000BC01CD01689412F89695879577956795CD
:100350001694D1F70E949C02CF5F01C0C0E0C43068
:1003600068F28091700081111CC083E0809371005D
:1003700018C08330B1F488B3816088BB609160009D
:100380007091610080916200909163000E949C02D4
:1003900088B38E7F88BB80917000811102C010925B
:1003A0007100CF9108950E9449000E940D01FDCF78
:1003B0009BB721E030E0082E02C0220F331F0A94C1
:1003C000E2F7292B2BBF863029F0873039F08530B2
:1003D000E9F40DC085B7682B65BF18C085B770E01C
:1003E000660F771F660F771F682B65BF0FC084B736
:1003F000462F417050E00024569547950794569536
:1004000047950794542F402D482B44BF7894089566
:100410001F920F920FB60F9211248F939F93AF9359
:10042000BF9380917F0090918000A0918100B09156
:1004300082000196A11DB11D80937F0090938000E2
:10044000A0938100B0938200BF91AF919F918F9153
:100450000F900FBE0F901F90189593B780917E005C
:10046000892B83BF089583B78E7F83BF83B78D7F2A
:1004700083BF83B78B7F83BF08951F93CF93DF9391
:10048000CDB7DEB72C970FB6F894DEBF0FBECDBF49
:10049000182F8CE0E4E6F0E0DE01119601900D9259
:1004A0008A95E1F760937E00E62FF0E0EE0FFF1FE4
:1004B00081E090E08C0F9D1FE80FF91F6081718132
:1004C00080E090E00E943C0460937A0070937B008F
:1004D00080937C0090937D0020E030E040E853E47E
:1004E0000E940B05609376007093770080937800EC
:1004F0009093790011110CC083B7877F83BF83B7B6
:100500008F7B83BF0E94330289B7816089BF789453
:100510002C960FB6F894DEBF0FBECDBFDF91CF9102
:100520001F91089512BE10927F00109280001092C9
:1005300081001092820008958F929F92AF92BF9295
:10054000CF92DF92EF92FF926B017C010E949202A8
:10055000C701B6010E943C044B015C01209176006A
:100560003091770040917800509179000E949B0370
:100570000E9484030E940D046B017C016093720051
:1005800070937300809374009093750020917A00AB
:1005900030917B0040917C0050917D00C501B401F9
:1005A0000E949B034B015C01C701B6010E943C0401
:1005B0009B01AC01C501B4010E949B039B01AC01EE
:1005C00060E070E080E893E40E9417030E940D044D
:1005D00062BF0E942D0240917F0050918000609187
:1005E0008100709182008091720090917300A091BF
:1005F0007400B0917500481759076A077B0758F3D4
:100600000E943302FF90EF90DF90CF90BF90AF90A9
:100610009F908F9008958FEF9FEFDC0180937F0074
:1006200090938000A0938100B09382000895505869
:10063000BB27AA270E942F030C94B9040E94AB0485
:1006400038F00E94B20420F039F49F3F19F426F4E8
:100650000C94A8040EF4E095E7FB0C947904E92FC0
:100660000E94CA0458F3BA176207730784079507F4
:1006700020F079F4A6F50C9404050EF4E0950B2E09
:10068000BA2FA02D0B01B90190010C01CA01A001E4
:100690001124FF27591B99F0593F50F4503E68F13F
:1006A0001A16F040A22F232F342F4427585FF3CF80
:1006B000469537952795A795F0405395C9F77EF451
:1006C0001F16BA0B620B730B840BBAF09150A1F09A
:1006D000FF0FBB1F661F771F881FC2F70EC0BA0F20
:1006E000621F731F841F48F4879577956795B795A8
:1006F000F7959E3F08F0B0CF9395880F08F09927A3
:10070000EE0F9795879508950E94EC0490F09F371F
:1007100048F4911116F40C94050560E070E080E84F
:100720009FE3089526F01B16611D711D811D0C9419
:100730007F040C949A040E94AF030C94B9040E94A5
:10074000B20458F00E94AB0440F029F45F3F29F056
:100750000C94790451110C9405050C94A8040E9482
:10076000CA0468F39923B1F3552391F3951B550BF4
:10077000BB27AA2762177307840738F09F5F5F4F74
:10078000220F331F441FAA1FA9F335D00E2E3AF0B3
:10079000E0E832D091505040E695001CCAF72BD0CB
:1007A000FE2F29D0660F771F881FBB1F261737071C
:1007B0004807AB07B0E809F0BB0B802DBF01FF274E
:1007C00093585F4F3AF09E3F510578F00C947904AE
:1007D0000C9405055F3FE4F3983ED4F38695779536
:1007E0006795B795F7959F5FC9F7880F911D969507
:1007F000879597F90895E1E0660F771F881FBB1F63
:10080000621773078407BA0720F0621B730B840B0F
:10081000BA0BEE1F88F7E09508950E94D20488F085
:100820009F5798F0B92F9927B751B0F0E1F0660FB4
:10083000771F881F991F1AF0BA95C9F714C0B130F5
:1008400091F00E940405B1E008950C940405672F0F
:10085000782F8827B85F39F0B93FCCF38695779524
:100860006795B395D9F73EF490958095709561950D
:100870007F4F8F4F9F4F0895E89409C097FB3EF438
:1008800090958095709561957F4F8F4F9F4F9923DD
:10089000A9F0F92F96E9BB279395F695879577955B
:1008A0006795B795F111F8CFFAF4BB0F11F460FF1B
:1008B0001BC06F5F7F4F8F4F9F4F16C0882311F073
:1008C00096E911C0772321F09EE8872F762F05C087
:1008D000662371F096E8862F70E060E02AF09A9522
:1008E000660F771F881FDAF7880F9695879597F917
:1008F000089597F99F6780E870E060E00895882385
:1009000071F4772321F09850872B762F07C0662348
:1009100011F499270DC09051862B70E060E02AF009
:100920009A95660F771F881FDAF7880F9695879537
:1009300097F908959F3F31F0915020F4879577956E
:100940006795B795880F911D9695879597F90895A6
:100950009FEF80EC089500240A94161617061806D7
:100960000906089500240A941216130614060506B3
:100970000895092E0394000C11F4882352F0BB0F44
:1009800040F4BF2B11F460FF04C06F5F7F4F8F4FA7
:100990009F4F089557FD9058440F551F59F05F3FE2
:1009A00071F04795880F97FB991F61F09F3F79F091
:1009B00087950895121613061406551FF2CF469513
:1009C000F1DF08C0161617061806991FF1CF869595
:1009D00071056105089408950E94D204A0F0BEE755
:1009E000B91788F4BB279F3860F41616B11D672F1E
:1009F000782F8827985FF7CF869577956795B11DF3
:100A000093959639C8F30895E894BB27662777270E
:100A1000CB0197F908950E941E050C94B9040E9419
:100A2000AB0438F00E94B20420F0952311F00C942E
:100A300079040C94A80411240C9405050E94CA049E
:100A400070F3959FC1F3950F50E0551F629FF00121
:100A5000729FBB27F00DB11D639FAA27F00DB11D3A
:100A6000AA1F649F6627B00DA11D661F829F2227C3
:100A7000B00DA11D621F739FB00DA11D621F839F4A
:100A8000A00D611D221F749F3327A00D611D231F20
:100A9000849F600D211D822F762F6A2F11249F576E
:100AA00050409AF0F1F088234AF0EE0FFF1FBB1F71
:100AB000661F771F881F91505040A9F79E3F510530
:100AC00080F00C9479040C9405055F3FE4F3983EA4
:100AD000D4F3869577956795B795F795E7959F5FDA
:100AE000C1F7FE2B880F911D9695879597F908956C
:040AF000F894FFCFA8
:100AF400404B4C00000001000800400000010004CD
:00000001FF
