S018000041746D656761333220647269766572732E7372656339
S11300000C942A000C9449000C9447000C9447006B
S11300100C9447000C9447000C9447000C94470040
S11300200C9447000C9447000C9447000C9406026F
S11300300C9447000C9447000C9447000C94470020
S11300400C9447000C9447000C9447000C94470010
S11300500C94470011241FBECFE5D8E0DEBFCDBF0E
S113006010E0A0E6B0E0E8E5F5E002C005900D92EE
S1130070A436B107D9F720E0A4E6B0E001C01D9290
S1130080AA36B207E1F70E94D2010C94AA020C949A
S113009000001F920F920FB60F9211242F933F93DB
S11300A04F935F936F937F938F939F93AF93BF937C
S11300B0EF93FF938091640081110DC081E08093E0
S11300C0640010926000109261001092620010921D
S11300D063000E942B02FF91EF91BF91AF919F911A
S11300E08F917F916F915F914F913F912F910F90DD
S11300F00FBE0F901F901895CF93809165008330A9
S113010048F58BB381608BBB88B3846088BBC0E047
S113011019C088B3826088BB8BB382608BBB68E6EE
S113012079E889E090E00E947D0288B38D7F88BBE6
S11301308BB38D7F8BBB68E679E889E090E00E9401
S11301407D02CF5FC43028F38BB38E7F8BBB88B323
S11301508B7F88BB8BB384608BBB88B3816088BB87
S113016060E47BE48CE490E00E947D02C0E019C06E
S113017088B3826088BB8BB382608BBB68E679E806
S113018089E090E00E947D0288B38D7F88BB8BB3A9
S11301908D7F8BBB68E679E889E090E00E947D0260
S11301A0CF5FC43028F38BB38B7F8BBB88B38E7F38
S11301B088BB8BB381608BBB88B3846088BB60E4ED
S11301C07BE48CE490E00E947D028BB38E7F8BBB3A
S11301D088B38B7F88BB82E08093650010926400B3
S11301E0CF91089580E00E944B028AB384608ABB59
S11301F08AB382608ABB8AB381608ABB87B3846016
S113020087BB87B3826087BB87B3816087BB62E0AB
S113021086E00E94D7010895CF93809164008130D5
S113022019F40E947C00BCC080E49BE4ACE4B0E020
S11302308093600090936100A0936200B093630088
S113024080916500882389F13BC088B3826088BBB4
S11302508091600090916100A0916200B091630070
S1130260BC01CD01689412F89695879577956795AA
S11302701694D1F70E947D0288B38D7F88BB80914C
S1130280600090916100A0916200B0916300BC0194
S1130290CD01689412F8969587957795679516948D
S11302A0D1F70E947D02CF5F01C0C0E0C43068F284
S11302B080916400811174C081E08093650070C0F6
S11302C08130C1F488B3846088BB60916000709110
S11302D0610080916200909163000E947D0288B366
S11302E08B7F88BB8091640081115AC082E0809327
S11302F0650056C08230E1F530C088B3826088BBA7
S11303008091600090916100A0916200B0916300BF
S1130310BC01CD01689412F89695879577956795F9
S11303201694D1F70E947D0288B38D7F88BB80919B
S1130330600090916100A0916200B0916300BC01E3
S1130340CD01689412F896958795779567951694DC
S1130350D1F70E947D02CF5F01C0C0E0C43068F2D3
S11303608091640081111CC083E08093650018C0F3
S11303708330B1F488B3816088BB60916000709170
S1130380610080916200909163000E947D0288B3B5
S11303908E7F88BB80916400811102C01092650039
S11303A0CF9108950E94F2000E940C01FDCF9BB7EB
S11303B021E030E0082E02C0220F331F0A94E2F736
S11303C0292B2BBF8630A1F08730B1F08530E1F4C2
S11303D084B7462F417050E0002456954795079402
S11303E0569547950794542F402D482B44BF0CC075
S11303F085B7682B65BF08C085B770E0660F771FA7
S1130400660F771F682B65BF789408951F920F922B
S11304100FB60F9211248F939F93AF93BF93809144
S1130420660090916700A0916800B0916900019600
S1130430A11DB11D8093660090936700A09368008E
S1130440B0936900BF91AF919F918F910F900FBEB0
S11304500F901F9018958FEF9FEFDC01809366003B
S113046090936700A0936800B0936900089583B7E0
S11304708E7F83BF83B7826083BF83B78B7F83BF45
S1130480089583B78E7F83BF83B78D7F83BF83B780
S11304908B7F83BF0895882319F0833071F008950A
S11304A083B7877F83BF83B78F7B83BF0E9441025B
S11304B089B7816089BF7894089583B7886083BFC2
S11304C083B7806483BF83B7806283BF83B78F7E23
S11304D083BF83B7816083BF83B78D7F83BF83B7B7
S11304E0846083BF089512BE109266001092670064
S11304F010926800109269000895CF92DF92EF92F3
S1130500FF926B017C010E9473020E94370282B742
S113051090E00196409166005091670060916800F8
S113052070916900762F652F542F4427092E000CF3
S1130530AA0BBB0B840F951FA61FB71F8C159D0517
S1130540AE05BF0520F30E944102FF90EF90DF90BB
S10B0550CF900895F894FFCF49
S1070558404B4C00C4
S9030000FC
